:020000040000FA
:1000000001288316031387018312031386018316C5
:1000100003131930990083160313263098008312B6
:100020000313803098000C1E13284E30990037209F
:100030004930990037204C309900372041309900E1
:10004000372059309900372020309900372041302F
:10005000990037204830990037204D3099003720DB
:1000600045309900372054309900372036283C30ED
:10007000A0008230A100A10B3B28A00B392808006A
:00000001FF
